:10000000259A04E01AE221E1020F010F02D000D08C
:10001000FFDF03D00A95E9F708952D9A03D02D98B4
:1000200001D0089502D001D0089505D004D003D0A6
:1000300002D001D0089505D004D003D002D001D061
:10004000089504D003D002D001D0089505D004D083
:1000500003D002D001D008950AD009D008D007D02B
:1000600006D005D004D003D002D001D008951F934C
:1000700013E6000000000000000000001A95C9F718
:040080001F9108952F
:00000001FF
